{
  "contractName": "SecureCode",
  "abi": [
    {
      "inputs": [],
      "stateMutability": "nonpayable",
      "type": "constructor"
    },
    {
      "anonymous": false,
      "inputs": [
        {
          "indexed": true,
          "internalType": "address",
          "name": "owner",
          "type": "address"
        },
        {
          "indexed": true,
          "internalType": "address",
          "name": "approved",
          "type": "address"
        },
        {
          "indexed": true,
          "internalType": "uint256",
          "name": "tokenId",
          "type": "uint256"
        }
      ],
      "name": "Approval",
      "type": "event"
    },
    {
      "anonymous": false,
      "inputs": [
        {
          "indexed": true,
          "internalType": "address",
          "name": "owner",
          "type": "address"
        },
        {
          "indexed": true,
          "internalType": "address",
          "name": "operator",
          "type": "address"
        },
        {
          "indexed": false,
          "internalType": "bool",
          "name": "approved",
          "type": "bool"
        }
      ],
      "name": "ApprovalForAll",
      "type": "event"
    },
    {
      "anonymous": false,
      "inputs": [
        {
          "indexed": true,
          "internalType": "address",
          "name": "previousOwner",
          "type": "address"
        },
        {
          "indexed": true,
          "internalType": "address",
          "name": "newOwner",
          "type": "address"
        }
      ],
      "name": "OwnershipTransferred",
      "type": "event"
    },
    {
      "anonymous": false,
      "inputs": [
        {
          "indexed": false,
          "internalType": "address",
          "name": "account",
          "type": "address"
        }
      ],
      "name": "Paused",
      "type": "event"
    },
    {
      "anonymous": false,
      "inputs": [
        {
          "indexed": true,
          "internalType": "address",
          "name": "from",
          "type": "address"
        },
        {
          "indexed": true,
          "internalType": "address",
          "name": "to",
          "type": "address"
        },
        {
          "indexed": true,
          "internalType": "uint256",
          "name": "tokenId",
          "type": "uint256"
        }
      ],
      "name": "Transfer",
      "type": "event"
    },
    {
      "anonymous": false,
      "inputs": [
        {
          "indexed": false,
          "internalType": "address",
          "name": "account",
          "type": "address"
        }
      ],
      "name": "Unpaused",
      "type": "event"
    },
    {
      "inputs": [
        {
          "internalType": "address",
          "name": "to",
          "type": "address"
        },
        {
          "internalType": "uint256",
          "name": "tokenId",
          "type": "uint256"
        }
      ],
      "name": "approve",
      "outputs": [],
      "stateMutability": "nonpayable",
      "type": "function"
    },
    {
      "inputs": [
        {
          "internalType": "address",
          "name": "owner",
          "type": "address"
        }
      ],
      "name": "balanceOf",
      "outputs": [
        {
          "internalType": "uint256",
          "name": "",
          "type": "uint256"
        }
      ],
      "stateMutability": "view",
      "type": "function",
      "constant": true
    },
    {
      "inputs": [
        {
          "internalType": "uint256",
          "name": "",
          "type": "uint256"
        }
      ],
      "name": "codeOwnerAccts",
      "outputs": [
        {
          "internalType": "address",
          "name": "",
          "type": "address"
        }
      ],
      "stateMutability": "view",
      "type": "function",
      "constant": true
    },
    {
      "inputs": [
        {
          "internalType": "uint256",
          "name": "tokenId",
          "type": "uint256"
        }
      ],
      "name": "getApproved",
      "outputs": [
        {
          "internalType": "address",
          "name": "",
          "type": "address"
        }
      ],
      "stateMutability": "view",
      "type": "function",
      "constant": true
    },
    {
      "inputs": [
        {
          "internalType": "address",
          "name": "owner",
          "type": "address"
        },
        {
          "internalType": "address",
          "name": "operator",
          "type": "address"
        }
      ],
      "name": "isApprovedForAll",
      "outputs": [
        {
          "internalType": "bool",
          "name": "",
          "type": "bool"
        }
      ],
      "stateMutability": "view",
      "type": "function",
      "constant": true
    },
    {
      "inputs": [],
      "name": "name",
      "outputs": [
        {
          "internalType": "string",
          "name": "",
          "type": "string"
        }
      ],
      "stateMutability": "view",
      "type": "function",
      "constant": true
    },
    {
      "inputs": [],
      "name": "owner",
      "outputs": [
        {
          "internalType": "address",
          "name": "",
          "type": "address"
        }
      ],
      "stateMutability": "view",
      "type": "function",
      "constant": true
    },
    {
      "inputs": [
        {
          "internalType": "uint256",
          "name": "tokenId",
          "type": "uint256"
        }
      ],
      "name": "ownerOf",
      "outputs": [
        {
          "internalType": "address",
          "name": "",
          "type": "address"
        }
      ],
      "stateMutability": "view",
      "type": "function",
      "constant": true
    },
    {
      "inputs": [],
      "name": "paused",
      "outputs": [
        {
          "internalType": "bool",
          "name": "",
          "type": "bool"
        }
      ],
      "stateMutability": "view",
      "type": "function",
      "constant": true
    },
    {
      "inputs": [],
      "name": "renounceOwnership",
      "outputs": [],
      "stateMutability": "nonpayable",
      "type": "function"
    },
    {
      "inputs": [
        {
          "internalType": "address",
          "name": "from",
          "type": "address"
        },
        {
          "internalType": "address",
          "name": "to",
          "type": "address"
        },
        {
          "internalType": "uint256",
          "name": "tokenId",
          "type": "uint256"
        }
      ],
      "name": "safeTransferFrom",
      "outputs": [],
      "stateMutability": "nonpayable",
      "type": "function"
    },
    {
      "inputs": [
        {
          "internalType": "address",
          "name": "from",
          "type": "address"
        },
        {
          "internalType": "address",
          "name": "to",
          "type": "address"
        },
        {
          "internalType": "uint256",
          "name": "tokenId",
          "type": "uint256"
        },
        {
          "internalType": "bytes",
          "name": "_data",
          "type": "bytes"
        }
      ],
      "name": "safeTransferFrom",
      "outputs": [],
      "stateMutability": "nonpayable",
      "type": "function"
    },
    {
      "inputs": [
        {
          "internalType": "address",
          "name": "operator",
          "type": "address"
        },
        {
          "internalType": "bool",
          "name": "approved",
          "type": "bool"
        }
      ],
      "name": "setApprovalForAll",
      "outputs": [],
      "stateMutability": "nonpayable",
      "type": "function"
    },
    {
      "inputs": [
        {
          "internalType": "bytes4",
          "name": "interfaceId",
          "type": "bytes4"
        }
      ],
      "name": "supportsInterface",
      "outputs": [
        {
          "internalType": "bool",
          "name": "",
          "type": "bool"
        }
      ],
      "stateMutability": "view",
      "type": "function",
      "constant": true
    },
    {
      "inputs": [],
      "name": "symbol",
      "outputs": [
        {
          "internalType": "string",
          "name": "",
          "type": "string"
        }
      ],
      "stateMutability": "view",
      "type": "function",
      "constant": true
    },
    {
      "inputs": [
        {
          "internalType": "address",
          "name": "from",
          "type": "address"
        },
        {
          "internalType": "address",
          "name": "to",
          "type": "address"
        },
        {
          "internalType": "uint256",
          "name": "tokenId",
          "type": "uint256"
        }
      ],
      "name": "transferFrom",
      "outputs": [],
      "stateMutability": "nonpayable",
      "type": "function"
    },
    {
      "inputs": [
        {
          "internalType": "address",
          "name": "newOwner",
          "type": "address"
        }
      ],
      "name": "transferOwnership",
      "outputs": [],
      "stateMutability": "nonpayable",
      "type": "function"
    },
    {
      "inputs": [
        {
          "internalType": "string",
          "name": "_sha",
          "type": "string"
        },
        {
          "internalType": "string",
          "name": "_status",
          "type": "string"
        },
        {
          "internalType": "uint256",
          "name": "_id",
          "type": "uint256"
        }
      ],
      "name": "setPipeline",
      "outputs": [],
      "stateMutability": "nonpayable",
      "type": "function"
    },
    {
      "inputs": [
        {
          "internalType": "address",
          "name": "_address",
          "type": "address"
        }
      ],
      "name": "getPipelines",
      "outputs": [
        {
          "components": [
            {
              "internalType": "uint256",
              "name": "id",
              "type": "uint256"
            },
            {
              "internalType": "string",
              "name": "commitSha",
              "type": "string"
            },
            {
              "internalType": "string",
              "name": "status",
              "type": "string"
            },
            {
              "internalType": "bool",
              "name": "approved",
              "type": "bool"
            }
          ],
          "internalType": "struct SecureCode.PipelineInfo[]",
          "name": "",
          "type": "tuple[]"
        }
      ],
      "stateMutability": "view",
      "type": "function",
      "constant": true
    },
    {
      "inputs": [
        {
          "internalType": "uint256",
          "name": "_index",
          "type": "uint256"
        },
        {
          "internalType": "address",
          "name": "_address",
          "type": "address"
        }
      ],
      "name": "approveCode",
      "outputs": [],
      "stateMutability": "nonpayable",
      "type": "function"
    },
    {
      "inputs": [],
      "name": "getCodeOwnerAccts",
      "outputs": [
        {
          "internalType": "address[]",
          "name": "",
          "type": "address[]"
        }
      ],
      "stateMutability": "view",
      "type": "function",
      "constant": true
    },
    {
      "inputs": [],
      "name": "pause",
      "outputs": [],
      "stateMutability": "nonpayable",
      "type": "function"
    },
    {
      "inputs": [],
      "name": "unpause",
      "outputs": [],
      "stateMutability": "nonpayable",
      "type": "function"
    },
    {
      "inputs": [
        {
          "internalType": "address",
          "name": "to",
          "type": "address"
        },
        {
          "internalType": "string",
          "name": "uri",
          "type": "string"
        }
      ],
      "name": "safeMint",
      "outputs": [],
      "stateMutability": "nonpayable",
      "type": "function"
    },
    {
      "inputs": [
        {
          "internalType": "uint256",
          "name": "tokenId",
          "type": "uint256"
        }
      ],
      "name": "tokenURI",
      "outputs": [
        {
          "internalType": "string",
          "name": "",
          "type": "string"
        }
      ],
      "stateMutability": "view",
      "type": "function",
      "constant": true
    }
  ],
  "bytecode": "0x60806040523480156200001157600080fd5b506040518060400160405280600a81526020017f536563757265436f6465000000000000000000000000000000000000000000008152506040518060400160405280600381526020017f5345430000000000000000000000000000000000000000000000000000000000815250816000908051906020019062000096929190620001c1565b508060019080519060200190620000af929190620001c1565b5050506000600760006101000a81548160ff021916908315150217905550620000ed620000e1620000f360201b60201c565b620000fb60201b60201c565b620002d6565b600033905090565b6000600760019054906101000a900473ffffffffffffffffffffffffffffffffffffffff16905081600760016101000a81548173ffffffffffffffffffffffffffffffffffffffff021916908373ffffffffffffffffffffffffffffffffffffffff1602179055508173ffffffffffffffffffffffffffffffffffffffff168173ffffffffffffffffffffffffffffffffffffffff167f8be0079c531659141344cd1fd0a4f28419497f9722a3daafe3b4186f6b6457e060405160405180910390a35050565b828054620001cf90620002a0565b90600052602060002090601f016020900481019282620001f357600085556200023f565b82601f106200020e57805160ff19168380011785556200023f565b828001600101855582156200023f579182015b828111156200023e57825182559160200191906001019062000221565b5b5090506200024e919062000252565b5090565b5b808211156200026d57600081600090555060010162000253565b5090565b7f4e487b7100000000000000000000000000000000000000000000000000000000600052602260045260246000fd5b60006002820490506001821680620002b957607f821691505b60208210811415620002d057620002cf62000271565b5b50919050565b613d4f80620002e66000396000f3fe608060405234801561001057600080fd5b50600436106101735760003560e01c8063715018a6116100de578063b88d4fde11610097578063e985e9c511610071578063e985e9c51461040e578063f2fde38b1461043e578063f342bb171461045a578063f79dbf6a1461048a57610173565b8063b88d4fde146103a6578063c87b56dd146103c2578063d204c45e146103f257610173565b8063715018a61461031e5780638456cb59146103285780638da5cb5b1461033257806395d89b41146103505780639dc0e2791461036e578063a22cb4651461038a57610173565b8063253c59e211610130578063253c59e21461024a5780633f4ba83a1461027a57806342842e0e146102845780635c975abb146102a05780636352211e146102be57806370a08231146102ee57610173565b806301ffc9a71461017857806306fdde03146101a8578063081812fc146101c6578063095ea7b3146101f65780630c2b83071461021257806323b872dd1461022e575b600080fd5b610192600480360381019061018d919061257a565b6104a8565b60405161019f91906125c2565b60405180910390f35b6101b061058a565b6040516101bd9190612676565b60405180910390f35b6101e060048036038101906101db91906126ce565b61061c565b6040516101ed919061273c565b60405180910390f35b610210600480360381019061020b9190612783565b6106a1565b005b61022c600480360381019061022791906127c3565b6107b9565b005b61024860048036038101906102439190612803565b6108bd565b005b610264600480360381019061025f9190612856565b61091d565b6040516102719190612a17565b60405180910390f35b610282610b07565b005b61029e60048036038101906102999190612803565b610b8d565b005b6102a8610bad565b6040516102b591906125c2565b60405180910390f35b6102d860048036038101906102d391906126ce565b610bc4565b6040516102e5919061273c565b60405180910390f35b61030860048036038101906103039190612856565b610c76565b6040516103159190612a48565b60405180910390f35b610326610d2e565b005b610330610db6565b005b61033a610e3c565b604051610347919061273c565b60405180910390f35b610358610e66565b6040516103659190612676565b60405180910390f35b61038860048036038101906103839190612b98565b610ef8565b005b6103a4600480360381019061039f9190612c4f565b61105b565b005b6103c060048036038101906103bb9190612d30565b611071565b005b6103dc60048036038101906103d791906126ce565b6110d3565b6040516103e99190612676565b60405180910390f35b61040c60048036038101906104079190612db3565b6110e5565b005b61042860048036038101906104239190612e0f565b611116565b60405161043591906125c2565b60405180910390f35b61045860048036038101906104539190612856565b6111aa565b005b610474600480360381019061046f91906126ce565b6112a2565b604051610481919061273c565b60405180910390f35b6104926112e1565b60405161049f9190612f0d565b60405180910390f35b60007f80ac58cd000000000000000000000000000000000000000000000000000000007bffffffffffffffffffffffffffffffffffffffffffffffffffffffff1916827bffffffffffffffffffffffffffffffffffffffffffffffffffffffff1916148061057357507f5b5e139f000000000000000000000000000000000000000000000000000000007bffffffffffffffffffffffffffffffffffffffffffffffffffffffff1916827bffffffffffffffffffffffffffffffffffffffffffffffffffffffff1916145b8061058357506105828261136f565b5b9050919050565b60606000805461059990612f5e565b80601f01602080910402602001604051908101604052809291908181526020018280546105c590612f5e565b80156106125780601f106105e757610100808354040283529160200191610612565b820191906000526020600020905b8154815290600101906020018083116105f557829003601f168201915b5050505050905090565b6000610627826113d9565b610666576040517f08c379a000000000000000000000000000000000000000000000000000000000815260040161065d90613002565b60405180910390fd5b6004600083815260200190815260200160002060009054906101000a900473ffffffffffffffffffffffffffffffffffffffff169050919050565b60006106ac82610bc4565b90508073ffffffffffffffffffffffffffffffffffffffff168373ffffffffffffffffffffffffffffffffffffffff16141561071d576040517f08c379a000000000000000000000000000000000000000000000000000000000815260040161071490613094565b60405180910390fd5b8073ffffffffffffffffffffffffffffffffffffffff1661073c611445565b73ffffffffffffffffffffffffffffffffffffffff16148061076b575061076a81610765611445565b611116565b5b6107aa576040517f08c379a00000000000000000000000000000000000000000000000000000000081526004016107a190613126565b60405180910390fd5b6107b4838361144d565b505050565b6107c1611445565b73ffffffffffffffffffffffffffffffffffffffff166107df610e3c565b73ffffffffffffffffffffffffffffffffffffffff1614610835576040517f08c379a000000000000000000000000000000000000000000000000000000000815260040161082c90613192565b60405180910390fd5b6000600960008373ffffffffffffffffffffffffffffffffffffffff1673ffffffffffffffffffffffffffffffffffffffff168152602001908152602001600020905060018160000184815481106108905761088f6131b2565b5b906000526020600020906004020160030160006101000a81548160ff021916908315150217905550505050565b6108ce6108c8611445565b82611506565b61090d576040517f08c379a000000000000000000000000000000000000000000000000000000000815260040161090490613253565b60405180910390fd5b6109188383836115e4565b505050565b6060600960008373ffffffffffffffffffffffffffffffffffffffff1673ffffffffffffffffffffffffffffffffffffffff168152602001908152602001600020600001805480602002602001604051908101604052809291908181526020016000905b82821015610afc5783829060005260206000209060040201604051806080016040529081600082015481526020016001820180546109be90612f5e565b80601f01602080910402602001604051908101604052809291908181526020018280546109ea90612f5e565b8015610a375780601f10610a0c57610100808354040283529160200191610a37565b820191906000526020600020905b815481529060010190602001808311610a1a57829003601f168201915b50505050508152602001600282018054610a5090612f5e565b80601f0160208091040260200160405190810160405280929190818152602001828054610a7c90612f5e565b8015610ac95780601f10610a9e57610100808354040283529160200191610ac9565b820191906000526020600020905b815481529060010190602001808311610aac57829003601f168201915b505050505081526020016003820160009054906101000a900460ff16151515158152505081526020019060010190610981565b505050509050919050565b610b0f611445565b73ffffffffffffffffffffffffffffffffffffffff16610b2d610e3c565b73ffffffffffffffffffffffffffffffffffffffff1614610b83576040517f08c379a0000000000000000000000000000000000000000000000000000000008152600401610b7a90613192565b60405180910390fd5b610b8b611840565b565b610ba883838360405180602001604052806000815250611071565b505050565b6000600760009054906101000a900460ff16905090565b6000806002600084815260200190815260200160002060009054906101000a900473ffffffffffffffffffffffffffffffffffffffff169050600073ffffffffffffffffffffffffffffffffffffffff168173ffffffffffffffffffffffffffffffffffffffff161415610c6d576040517f08c379a0000000000000000000000000000000000000000000000000000000008152600401610c64906132e5565b60405180910390fd5b80915050919050565b60008073ffffffffffffffffffffffffffffffffffffffff168273ffffffffffffffffffffffffffffffffffffffff161415610ce7576040517f08c379a0000000000000000000000000000000000000000000000000000000008152600401610cde90613377565b60405180910390fd5b600360008373ffffffffffffffffffffffffffffffffffffffff1673ffffffffffffffffffffffffffffffffffffffff168152602001908152602001600020549050919050565b610d36611445565b73ffffffffffffffffffffffffffffffffffffffff16610d54610e3c565b73ffffffffffffffffffffffffffffffffffffffff1614610daa576040517f08c379a0000000000000000000000000000000000000000000000000000000008152600401610da190613192565b60405180910390fd5b610db460006118e2565b565b610dbe611445565b73ffffffffffffffffffffffffffffffffffffffff16610ddc610e3c565b73ffffffffffffffffffffffffffffffffffffffff1614610e32576040517f08c379a0000000000000000000000000000000000000000000000000000000008152600401610e2990613192565b60405180910390fd5b610e3a6119a8565b565b6000600760019054906101000a900473ffffffffffffffffffffffffffffffffffffffff16905090565b606060018054610e7590612f5e565b80601f0160208091040260200160405190810160405280929190818152602001828054610ea190612f5e565b8015610eee5780601f10610ec357610100808354040283529160200191610eee565b820191906000526020600020905b815481529060010190602001808311610ed157829003601f168201915b5050505050905090565b6000600960003373ffffffffffffffffffffffffffffffffffffffff1673ffffffffffffffffffffffffffffffffffffffff1681526020019081526020016000209050806000016040518060800160405280848152602001868152602001858152602001600015158152509080600181540180825580915050600190039060005260206000209060040201600090919091909150600082015181600001556020820151816001019080519060200190610fb292919061246b565b506040820151816002019080519060200190610fcf92919061246b565b5060608201518160030160006101000a81548160ff0219169083151502179055505050600a339080600181540180825580915050600190039060005260206000200160009091909190916101000a81548173ffffffffffffffffffffffffffffffffffffffff021916908373ffffffffffffffffffffffffffffffffffffffff16021790555050505050565b61106d611066611445565b8383611a4b565b5050565b61108261107c611445565b83611506565b6110c1576040517f08c379a00000000000000000000000000000000000000000000000000000000081526004016110b890613253565b60405180910390fd5b6110cd84848484611bb8565b50505050565b60606110de82611c14565b9050919050565b60006110f16008611d66565b90506110fd6008611d74565b6111078382611d8a565b6111118183611da8565b505050565b6000600560008473ffffffffffffffffffffffffffffffffffffffff1673ffffffffffffffffffffffffffffffffffffffff16815260200190815260200160002060008373ffffffffffffffffffffffffffffffffffffffff1673ffffffffffffffffffffffffffffffffffffffff16815260200190815260200160002060009054906101000a900460ff16905092915050565b6111b2611445565b73ffffffffffffffffffffffffffffffffffffffff166111d0610e3c565b73ffffffffffffffffffffffffffffffffffffffff1614611226576040517f08c379a000000000000000000000000000000000000000000000000000000000815260040161121d90613192565b60405180910390fd5b600073ffffffffffffffffffffffffffffffffffffffff168173ffffffffffffffffffffffffffffffffffffffff161415611296576040517f08c379a000000000000000000000000000000000000000000000000000000000815260040161128d90613409565b60405180910390fd5b61129f816118e2565b50565b600a81815481106112b257600080fd5b906000526020600020016000915054906101000a900473ffffffffffffffffffffffffffffffffffffffff1681565b6060600a80548060200260200160405190810160405280929190818152602001828054801561136557602002820191906000526020600020905b8160009054906101000a900473ffffffffffffffffffffffffffffffffffffffff1673ffffffffffffffffffffffffffffffffffffffff168152602001906001019080831161131b575b5050505050905090565b60007f01ffc9a7000000000000000000000000000000000000000000000000000000007bffffffffffffffffffffffffffffffffffffffffffffffffffffffff1916827bffffffffffffffffffffffffffffffffffffffffffffffffffffffff1916149050919050565b60008073ffffffffffffffffffffffffffffffffffffffff166002600084815260200190815260200160002060009054906101000a900473ffffffffffffffffffffffffffffffffffffffff1673ffffffffffffffffffffffffffffffffffffffff1614159050919050565b600033905090565b816004600083815260200190815260200160002060006101000a81548173ffffffffffffffffffffffffffffffffffffffff021916908373ffffffffffffffffffffffffffffffffffffffff160217905550808273ffffffffffffffffffffffffffffffffffffffff166114c083610bc4565b73ffffffffffffffffffffffffffffffffffffffff167f8c5be1e5ebec7d5bd14f71427d1e84f3dd0314c0f7b2291e5b200ac8c7c3b92560405160405180910390a45050565b6000611511826113d9565b611550576040517f08c379a00000000000000000000000000000000000000000000000000000000081526004016115479061349b565b60405180910390fd5b600061155b83610bc4565b90508073ffffffffffffffffffffffffffffffffffffffff168473ffffffffffffffffffffffffffffffffffffffff1614806115ca57508373ffffffffffffffffffffffffffffffffffffffff166115b28461061c565b73ffffffffffffffffffffffffffffffffffffffff16145b806115db57506115da8185611116565b5b91505092915050565b8273ffffffffffffffffffffffffffffffffffffffff1661160482610bc4565b73ffffffffffffffffffffffffffffffffffffffff161461165a576040517f08c379a00000000000000000000000000000000000000000000000000000000081526004016116519061352d565b60405180910390fd5b600073ffffffffffffffffffffffffffffffffffffffff168273ffffffffffffffffffffffffffffffffffffffff1614156116ca576040517f08c379a00000000000000000000000000000000000000000000000000000000081526004016116c1906135bf565b60405180910390fd5b6116d5838383611e1c565b6116e060008261144d565b6001600360008573ffffffffffffffffffffffffffffffffffffffff1673ffffffffffffffffffffffffffffffffffffffff1681526020019081526020016000206000828254611730919061360e565b925050819055506001600360008473ffffffffffffffffffffffffffffffffffffffff1673ffffffffffffffffffffffffffffffffffffffff16815260200190815260200160002060008282546117879190613642565b92505081905550816002600083815260200190815260200160002060006101000a81548173ffffffffffffffffffffffffffffffffffffffff021916908373ffffffffffffffffffffffffffffffffffffffff160217905550808273ffffffffffffffffffffffffffffffffffffffff168473ffffffffffffffffffffffffffffffffffffffff167fddf252ad1be2c89b69c2b068fc378daa952ba7f163c4a11628f55a4df523b3ef60405160405180910390a4505050565b611848610bad565b611887576040517f08c379a000000000000000000000000000000000000000000000000000000000815260040161187e906136e4565b60405180910390fd5b6000600760006101000a81548160ff0219169083151502179055507f5db9ee0a495bf2e6ff9c91a7834c1ba4fdd244a5e8aa4e537bd38aeae4b073aa6118cb611445565b6040516118d8919061273c565b60405180910390a1565b6000600760019054906101000a900473ffffffffffffffffffffffffffffffffffffffff16905081600760016101000a81548173ffffffffffffffffffffffffffffffffffffffff021916908373ffffffffffffffffffffffffffffffffffffffff1602179055508173ffffffffffffffffffffffffffffffffffffffff168173ffffffffffffffffffffffffffffffffffffffff167f8be0079c531659141344cd1fd0a4f28419497f9722a3daafe3b4186f6b6457e060405160405180910390a35050565b6119b0610bad565b156119f0576040517f08c379a00000000000000000000000000000000000000000000000000000000081526004016119e790613750565b60405180910390fd5b6001600760006101000a81548160ff0219169083151502179055507f62e78cea01bee320cd4e420270b5ea74000d11b0c9f74754ebdbfc544b05a258611a34611445565b604051611a41919061273c565b60405180910390a1565b8173ffffffffffffffffffffffffffffffffffffffff168373ffffffffffffffffffffffffffffffffffffffff161415611aba576040517f08c379a0000000000000000000000000000000000000000000000000000000008152600401611ab1906137bc565b60405180910390fd5b80600560008573ffffffffffffffffffffffffffffffffffffffff1673ffffffffffffffffffffffffffffffffffffffff16815260200190815260200160002060008473ffffffffffffffffffffffffffffffffffffffff1673ffffffffffffffffffffffffffffffffffffffff16815260200190815260200160002060006101000a81548160ff0219169083151502179055508173ffffffffffffffffffffffffffffffffffffffff168373ffffffffffffffffffffffffffffffffffffffff167f17307eab39ab6107e8899845ad3d59bd9653f200f220920489ca2b5937696c3183604051611bab91906125c2565b60405180910390a3505050565b611bc38484846115e4565b611bcf84848484611e74565b611c0e576040517f08c379a0000000000000000000000000000000000000000000000000000000008152600401611c059061384e565b60405180910390fd5b50505050565b6060611c1f826113d9565b611c5e576040517f08c379a0000000000000000000000000000000000000000000000000000000008152600401611c55906138e0565b60405180910390fd5b6000600660008481526020019081526020016000208054611c7e90612f5e565b80601f0160208091040260200160405190810160405280929190818152602001828054611caa90612f5e565b8015611cf75780601f10611ccc57610100808354040283529160200191611cf7565b820191906000526020600020905b815481529060010190602001808311611cda57829003601f168201915b505050505090506000611d0861200b565b9050600081511415611d1e578192505050611d61565b600082511115611d53578082604051602001611d3b92919061393c565b60405160208183030381529060405292505050611d61565b611d5c84612022565b925050505b919050565b600081600001549050919050565b6001816000016000828254019250508190555050565b611da48282604051806020016040528060008152506120c9565b5050565b611db1826113d9565b611df0576040517f08c379a0000000000000000000000000000000000000000000000000000000008152600401611de7906139d2565b60405180910390fd5b80600660008481526020019081526020016000209080519060200190611e1792919061246b565b505050565b611e24610bad565b15611e64576040517f08c379a0000000000000000000000000000000000000000000000000000000008152600401611e5b90613750565b60405180910390fd5b611e6f838383612124565b505050565b6000611e958473ffffffffffffffffffffffffffffffffffffffff16612129565b15611ffe578373ffffffffffffffffffffffffffffffffffffffff1663150b7a02611ebe611445565b8786866040518563ffffffff1660e01b8152600401611ee09493929190613a47565b602060405180830381600087803b158015611efa57600080fd5b505af1925050508015611f2b57506040513d601f19601f82011682018060405250810190611f289190613aa8565b60015b611fae573d8060008114611f5b576040519150601f19603f3d011682016040523d82523d6000602084013e611f60565b606091505b50600081511415611fa6576040517f08c379a0000000000000000000000000000000000000000000000000000000008152600401611f9d9061384e565b60405180910390fd5b805181602001fd5b63150b7a0260e01b7bffffffffffffffffffffffffffffffffffffffffffffffffffffffff1916817bffffffffffffffffffffffffffffffffffffffffffffffffffffffff191614915050612003565b600190505b949350505050565b606060405180602001604052806000815250905090565b606061202d826113d9565b61206c576040517f08c379a000000000000000000000000000000000000000000000000000000000815260040161206390613b47565b60405180910390fd5b600061207661200b565b9050600081511161209657604051806020016040528060008152506120c1565b806120a08461213c565b6040516020016120b192919061393c565b6040516020818303038152906040525b915050919050565b6120d3838361229d565b6120e06000848484611e74565b61211f576040517f08c379a00000000000000000000000000000000000000000000000000000000081526004016121169061384e565b60405180910390fd5b505050565b505050565b600080823b905060008111915050919050565b60606000821415612184576040518060400160405280600181526020017f30000000000000000000000000000000000000000000000000000000000000008152509050612298565b600082905060005b600082146121b657808061219f90613b67565b915050600a826121af9190613bdf565b915061218c565b60008167ffffffffffffffff8111156121d2576121d1612a6d565b5b6040519080825280601f01601f1916602001820160405280156122045781602001600182028036833780820191505090505b5090505b600085146122915760018261221d919061360e565b9150600a8561222c9190613c10565b60306122389190613642565b60f81b81838151811061224e5761224d6131b2565b5b60200101907effffffffffffffffffffffffffffffffffffffffffffffffffffffffffffff1916908160001a905350600a8561228a9190613bdf565b9450612208565b8093505050505b919050565b600073ffffffffffffffffffffffffffffffffffffffff168273ffffffffffffffffffffffffffffffffffffffff16141561230d576040517f08c379a000000000000000000000000000000000000000000000000000000000815260040161230490613c8d565b60405180910390fd5b612316816113d9565b15612356576040517f08c379a000000000000000000000000000000000000000000000000000000000815260040161234d90613cf9565b60405180910390fd5b61236260008383611e1c565b6001600360008473ffffffffffffffffffffffffffffffffffffffff1673ffffffffffffffffffffffffffffffffffffffff16815260200190815260200160002060008282546123b29190613642565b92505081905550816002600083815260200190815260200160002060006101000a81548173ffffffffffffffffffffffffffffffffffffffff021916908373ffffffffffffffffffffffffffffffffffffffff160217905550808273ffffffffffffffffffffffffffffffffffffffff16600073ffffffffffffffffffffffffffffffffffffffff167fddf252ad1be2c89b69c2b068fc378daa952ba7f163c4a11628f55a4df523b3ef60405160405180910390a45050565b82805461247790612f5e565b90600052602060002090601f01602090048101928261249957600085556124e0565b82601f106124b257805160ff19168380011785556124e0565b828001600101855582156124e0579182015b828111156124df5782518255916020019190600101906124c4565b5b5090506124ed91906124f1565b5090565b5b8082111561250a5760008160009055506001016124f2565b5090565b6000604051905090565b600080fd5b600080fd5b60007fffffffff0000000000000000000000000000000000000000000000000000000082169050919050565b61255781612522565b811461256257600080fd5b50565b6000813590506125748161254e565b92915050565b6000602082840312156125905761258f612518565b5b600061259e84828501612565565b91505092915050565b60008115159050919050565b6125bc816125a7565b82525050565b60006020820190506125d760008301846125b3565b92915050565b600081519050919050565b600082825260208201905092915050565b60005b838110156126175780820151818401526020810190506125fc565b83811115612626576000848401525b50505050565b6000601f19601f8301169050919050565b6000612648826125dd565b61265281856125e8565b93506126628185602086016125f9565b61266b8161262c565b840191505092915050565b60006020820190508181036000830152612690818461263d565b905092915050565b6000819050919050565b6126ab81612698565b81146126b657600080fd5b50565b6000813590506126c8816126a2565b92915050565b6000602082840312156126e4576126e3612518565b5b60006126f2848285016126b9565b91505092915050565b600073ffffffffffffffffffffffffffffffffffffffff82169050919050565b6000612726826126fb565b9050919050565b6127368161271b565b82525050565b6000602082019050612751600083018461272d565b92915050565b6127608161271b565b811461276b57600080fd5b50565b60008135905061277d81612757565b92915050565b6000806040838503121561279a57612799612518565b5b60006127a88582860161276e565b92505060206127b9858286016126b9565b9150509250929050565b600080604083850312156127da576127d9612518565b5b60006127e8858286016126b9565b92505060206127f98582860161276e565b9150509250929050565b60008060006060848603121561281c5761281b612518565b5b600061282a8682870161276e565b935050602061283b8682870161276e565b925050604061284c868287016126b9565b9150509250925092565b60006020828403121561286c5761286b612518565b5b600061287a8482850161276e565b91505092915050565b600081519050919050565b600082825260208201905092915050565b6000819050602082019050919050565b6128b881612698565b82525050565b600082825260208201905092915050565b60006128da826125dd565b6128e481856128be565b93506128f48185602086016125f9565b6128fd8161262c565b840191505092915050565b612911816125a7565b82525050565b600060808301600083015161292f60008601826128af565b506020830151848203602086015261294782826128cf565b9150506040830151848203604086015261296182826128cf565b91505060608301516129766060860182612908565b508091505092915050565b600061298d8383612917565b905092915050565b6000602082019050919050565b60006129ad82612883565b6129b7818561288e565b9350836020820285016129c98561289f565b8060005b85811015612a0557848403895281516129e68582612981565b94506129f183612995565b925060208a019950506001810190506129cd565b50829750879550505050505092915050565b60006020820190508181036000830152612a3181846129a2565b905092915050565b612a4281612698565b82525050565b6000602082019050612a5d6000830184612a39565b92915050565b600080fd5b600080fd5b7f4e487b7100000000000000000000000000000000000000000000000000000000600052604160045260246000fd5b612aa58261262c565b810181811067ffffffffffffffff82111715612ac457612ac3612a6d565b5b80604052505050565b6000612ad761250e565b9050612ae38282612a9c565b919050565b600067ffffffffffffffff821115612b0357612b02612a6d565b5b612b0c8261262c565b9050602081019050919050565b82818337600083830152505050565b6000612b3b612b3684612ae8565b612acd565b905082815260208101848484011115612b5757612b56612a68565b5b612b62848285612b19565b509392505050565b600082601f830112612b7f57612b7e612a63565b5b8135612b8f848260208601612b28565b91505092915050565b600080600060608486031215612bb157612bb0612518565b5b600084013567ffffffffffffffff811115612bcf57612bce61251d565b5b612bdb86828701612b6a565b935050602084013567ffffffffffffffff811115612bfc57612bfb61251d565b5b612c0886828701612b6a565b9250506040612c19868287016126b9565b9150509250925092565b612c2c816125a7565b8114612c3757600080fd5b50565b600081359050612c4981612c23565b92915050565b60008060408385031215612c6657612c65612518565b5b6000612c748582860161276e565b9250506020612c8585828601612c3a565b9150509250929050565b600067ffffffffffffffff821115612caa57612ca9612a6d565b5b612cb38261262c565b9050602081019050919050565b6000612cd3612cce84612c8f565b612acd565b905082815260208101848484011115612cef57612cee612a68565b5b612cfa848285612b19565b509392505050565b600082601f830112612d1757612d16612a63565b5b8135612d27848260208601612cc0565b91505092915050565b60008060008060808587031215612d4a57612d49612518565b5b6000612d588782880161276e565b9450506020612d698782880161276e565b9350506040612d7a878288016126b9565b925050606085013567ffffffffffffffff811115612d9b57612d9a61251d565b5b612da787828801612d02565b91505092959194509250565b60008060408385031215612dca57612dc9612518565b5b6000612dd88582860161276e565b925050602083013567ffffffffffffffff811115612df957612df861251d565b5b612e0585828601612b6a565b9150509250929050565b60008060408385031215612e2657612e25612518565b5b6000612e348582860161276e565b9250506020612e458582860161276e565b9150509250929050565b600081519050919050565b600082825260208201905092915050565b6000819050602082019050919050565b612e848161271b565b82525050565b6000612e968383612e7b565b60208301905092915050565b6000602082019050919050565b6000612eba82612e4f565b612ec48185612e5a565b9350612ecf83612e6b565b8060005b83811015612f00578151612ee78882612e8a565b9750612ef283612ea2565b925050600181019050612ed3565b5085935050505092915050565b60006020820190508181036000830152612f278184612eaf565b905092915050565b7f4e487b7100000000000000000000000000000000000000000000000000000000600052602260045260246000fd5b60006002820490506001821680612f7657607f821691505b60208210811415612f8a57612f89612f2f565b5b50919050565b7f4552433732313a20617070726f76656420717565727920666f72206e6f6e657860008201527f697374656e7420746f6b656e0000000000000000000000000000000000000000602082015250565b6000612fec602c836125e8565b9150612ff782612f90565b604082019050919050565b6000602082019050818103600083015261301b81612fdf565b9050919050565b7f4552433732313a20617070726f76616c20746f2063757272656e74206f776e6560008201527f7200000000000000000000000000000000000000000000000000000000000000602082015250565b600061307e6021836125e8565b915061308982613022565b604082019050919050565b600060208201905081810360008301526130ad81613071565b9050919050565b7f4552433732313a20617070726f76652063616c6c6572206973206e6f74206f7760008201527f6e6572206e6f7220617070726f76656420666f7220616c6c0000000000000000602082015250565b60006131106038836125e8565b915061311b826130b4565b604082019050919050565b6000602082019050818103600083015261313f81613103565b9050919050565b7f4f776e61626c653a2063616c6c6572206973206e6f7420746865206f776e6572600082015250565b600061317c6020836125e8565b915061318782613146565b602082019050919050565b600060208201905081810360008301526131ab8161316f565b9050919050565b7f4e487b7100000000000000000000000000000000000000000000000000000000600052603260045260246000fd5b7f4552433732313a207472616e736665722063616c6c6572206973206e6f74206f60008201527f776e6572206e6f7220617070726f766564000000000000000000000000000000602082015250565b600061323d6031836125e8565b9150613248826131e1565b604082019050919050565b6000602082019050818103600083015261326c81613230565b9050919050565b7f4552433732313a206f776e657220717565727920666f72206e6f6e657869737460008201527f656e7420746f6b656e0000000000000000000000000000000000000000000000602082015250565b60006132cf6029836125e8565b91506132da82613273565b604082019050919050565b600060208201905081810360008301526132fe816132c2565b9050919050565b7f4552433732313a2062616c616e636520717565727920666f7220746865207a6560008201527f726f206164647265737300000000000000000000000000000000000000000000602082015250565b6000613361602a836125e8565b915061336c82613305565b604082019050919050565b6000602082019050818103600083015261339081613354565b9050919050565b7f4f776e61626c653a206e6577206f776e657220697320746865207a65726f206160008201527f6464726573730000000000000000000000000000000000000000000000000000602082015250565b60006133f36026836125e8565b91506133fe82613397565b604082019050919050565b60006020820190508181036000830152613422816133e6565b9050919050565b7f4552433732313a206f70657261746f7220717565727920666f72206e6f6e657860008201527f697374656e7420746f6b656e0000000000000000000000000000000000000000602082015250565b6000613485602c836125e8565b915061349082613429565b604082019050919050565b600060208201905081810360008301526134b481613478565b9050919050565b7f4552433732313a207472616e73666572206f6620746f6b656e2074686174206960008201527f73206e6f74206f776e0000000000000000000000000000000000000000000000602082015250565b60006135176029836125e8565b9150613522826134bb565b604082019050919050565b600060208201905081810360008301526135468161350a565b9050919050565b7f4552433732313a207472616e7366657220746f20746865207a65726f2061646460008201527f7265737300000000000000000000000000000000000000000000000000000000602082015250565b60006135a96024836125e8565b91506135b48261354d565b604082019050919050565b600060208201905081810360008301526135d88161359c565b9050919050565b7f4e487b7100000000000000000000000000000000000000000000000000000000600052601160045260246000fd5b600061361982612698565b915061362483612698565b925082821015613637576136366135df565b5b828203905092915050565b600061364d82612698565b915061365883612698565b9250827fffffffffffffffffffffffffffffffffffffffffffffffffffffffffffffffff0382111561368d5761368c6135df565b5b828201905092915050565b7f5061757361626c653a206e6f7420706175736564000000000000000000000000600082015250565b60006136ce6014836125e8565b91506136d982613698565b602082019050919050565b600060208201905081810360008301526136fd816136c1565b9050919050565b7f5061757361626c653a2070617573656400000000000000000000000000000000600082015250565b600061373a6010836125e8565b915061374582613704565b602082019050919050565b600060208201905081810360008301526137698161372d565b9050919050565b7f4552433732313a20617070726f766520746f2063616c6c657200000000000000600082015250565b60006137a66019836125e8565b91506137b182613770565b602082019050919050565b600060208201905081810360008301526137d581613799565b9050919050565b7f4552433732313a207472616e7366657220746f206e6f6e20455243373231526560008201527f63656976657220696d706c656d656e7465720000000000000000000000000000602082015250565b60006138386032836125e8565b9150613843826137dc565b604082019050919050565b600060208201905081810360008301526138678161382b565b9050919050565b7f45524337323155524953746f726167653a2055524920717565727920666f722060008201527f6e6f6e6578697374656e7420746f6b656e000000000000000000000000000000602082015250565b60006138ca6031836125e8565b91506138d58261386e565b604082019050919050565b600060208201905081810360008301526138f9816138bd565b9050919050565b600081905092915050565b6000613916826125dd565b6139208185613900565b93506139308185602086016125f9565b80840191505092915050565b6000613948828561390b565b9150613954828461390b565b91508190509392505050565b7f45524337323155524953746f726167653a2055524920736574206f66206e6f6e60008201527f6578697374656e7420746f6b656e000000000000000000000000000000000000602082015250565b60006139bc602e836125e8565b91506139c782613960565b604082019050919050565b600060208201905081810360008301526139eb816139af565b9050919050565b600081519050919050565b600082825260208201905092915050565b6000613a19826139f2565b613a2381856139fd565b9350613a338185602086016125f9565b613a3c8161262c565b840191505092915050565b6000608082019050613a5c600083018761272d565b613a69602083018661272d565b613a766040830185612a39565b8181036060830152613a888184613a0e565b905095945050505050565b600081519050613aa28161254e565b92915050565b600060208284031215613abe57613abd612518565b5b6000613acc84828501613a93565b91505092915050565b7f4552433732314d657461646174613a2055524920717565727920666f72206e6f60008201527f6e6578697374656e7420746f6b656e0000000000000000000000000000000000602082015250565b6000613b31602f836125e8565b9150613b3c82613ad5565b604082019050919050565b60006020820190508181036000830152613b6081613b24565b9050919050565b6000613b7282612698565b91507fffffffffffffffffffffffffffffffffffffffffffffffffffffffffffffffff821415613ba557613ba46135df565b5b600182019050919050565b7f4e487b7100000000000000000000000000000000000000000000000000000000600052601260045260246000fd5b6000613bea82612698565b9150613bf583612698565b925082613c0557613c04613bb0565b5b828204905092915050565b6000613c1b82612698565b9150613c2683612698565b925082613c3657613c35613bb0565b5b828206905092915050565b7f4552433732313a206d696e7420746f20746865207a65726f2061646472657373600082015250565b6000613c776020836125e8565b9150613c8282613c41565b602082019050919050565b60006020820190508181036000830152613ca681613c6a565b9050919050565b7f4552433732313a20746f6b656e20616c7265616479206d696e74656400000000600082015250565b6000613ce3601c836125e8565b9150613cee82613cad565b602082019050919050565b60006020820190508181036000830152613d1281613cd6565b905091905056fea264697066735822122080b1111838103736c2483571dcdbfc16ee6b28ae2b40e00aa3d35419f3795c1364736f6c63430008090033",
  "immutableReferences": {},
  "source": "// SPDX-License-Identifier: MIT\npragma solidity ^0.8.2;\n\nimport \"@openzeppelin/contracts/token/ERC721/ERC721.sol\";\nimport \"@openzeppelin/contracts/token/ERC721/extensions/ERC721URIStorage.sol\";\nimport \"@openzeppelin/contracts/security/Pausable.sol\";\nimport \"@openzeppelin/contracts/access/Ownable.sol\";\nimport \"@openzeppelin/contracts/utils/Counters.sol\";\n\ncontract SecureCode is ERC721, ERC721URIStorage, Pausable, Ownable {\n    using Counters for Counters.Counter;\n\n    Counters.Counter private _tokenIdCounter;\n\n    constructor() ERC721(\"SecureCode\", \"SEC\") {}\n    \n    struct PipelineInfo {\n        uint id;\n        string commitSha;\n        string status;\n        bool approved;\n    }\n\n    struct CodeOwner {\n        PipelineInfo[] pipelines;\n    }\n\n    mapping (address => CodeOwner) codeOwners;\n    address[] public codeOwnerAccts;\n\n    function setPipeline(string memory _sha, string memory _status, uint _id) public {\n        CodeOwner storage codeOwner = codeOwners[msg.sender];\n\n        codeOwner.pipelines.push(PipelineInfo(_id, _sha, _status, false));\n        \n        codeOwnerAccts.push(msg.sender);\n    }\n    \n    function getPipelines(address _address) public view returns (PipelineInfo[] memory) {\n        return codeOwners[_address].pipelines;\n    }\n\n    function approveCode(uint _index, address _address) public onlyOwner {\n        CodeOwner storage codeOwner = codeOwners[_address];\n        codeOwner.pipelines[_index].approved = true;\n    }\n    \n    function getCodeOwnerAccts() public view returns (address[] memory){\n        return codeOwnerAccts;\n    }\n\n    function pause() public onlyOwner {\n        _pause();\n    }\n\n    function unpause() public onlyOwner {\n        _unpause();\n    }\n\n    function safeMint(address to, string memory uri) public {\n        uint256 tokenId = _tokenIdCounter.current();\n        _tokenIdCounter.increment();\n        _safeMint(to, tokenId);\n        _setTokenURI(tokenId, uri);\n    }\n\n    function _beforeTokenTransfer(address from, address to, uint256 tokenId)\n        internal\n        whenNotPaused\n        override\n    {\n        super._beforeTokenTransfer(from, to, tokenId);\n    }\n\n    function _burn(uint256 tokenId) internal override(ERC721, ERC721URIStorage) {\n        super._burn(tokenId);\n    }\n\n    function tokenURI(uint256 tokenId)\n        public\n        view\n        override(ERC721, ERC721URIStorage)\n        returns (string memory)\n    {\n        return super.tokenURI(tokenId);\n    }\n}",
  "sourcePath": "/home/anthony/workspace/blockchain/blockchain-developer-bootcamp-final-project/contracts/SecureCode.sol",
  "compiler": {
    "name": "solc",
    "version": "0.8.9+commit.e5eed63a.Emscripten.clang"
  },
  "schemaVersion": "3.4.3",
  "updatedAt": "2021-11-29T00:33:36.735Z",
  "networkType": "ethereum",
  "devdoc": {
    "kind": "dev",
    "methods": {
      "approve(address,uint256)": {
        "details": "See {IERC721-approve}."
      },
      "balanceOf(address)": {
        "details": "See {IERC721-balanceOf}."
      },
      "getApproved(uint256)": {
        "details": "See {IERC721-getApproved}."
      },
      "isApprovedForAll(address,address)": {
        "details": "See {IERC721-isApprovedForAll}."
      },
      "name()": {
        "details": "See {IERC721Metadata-name}."
      },
      "owner()": {
        "details": "Returns the address of the current owner."
      },
      "ownerOf(uint256)": {
        "details": "See {IERC721-ownerOf}."
      },
      "paused()": {
        "details": "Returns true if the contract is paused, and false otherwise."
      },
      "renounceOwnership()": {
        "details": "Leaves the contract without owner. It will not be possible to call `onlyOwner` functions anymore. Can only be called by the current owner. NOTE: Renouncing ownership will leave the contract without an owner, thereby removing any functionality that is only available to the owner."
      },
      "safeTransferFrom(address,address,uint256)": {
        "details": "See {IERC721-safeTransferFrom}."
      },
      "safeTransferFrom(address,address,uint256,bytes)": {
        "details": "See {IERC721-safeTransferFrom}."
      },
      "setApprovalForAll(address,bool)": {
        "details": "See {IERC721-setApprovalForAll}."
      },
      "supportsInterface(bytes4)": {
        "details": "See {IERC165-supportsInterface}."
      },
      "symbol()": {
        "details": "See {IERC721Metadata-symbol}."
      },
      "transferFrom(address,address,uint256)": {
        "details": "See {IERC721-transferFrom}."
      },
      "transferOwnership(address)": {
        "details": "Transfers ownership of the contract to a new account (`newOwner`). Can only be called by the current owner."
      }
    },
    "version": 1
  },
  "userdoc": {
    "kind": "user",
    "methods": {},
    "version": 1
  }
}